{
  "contractName": "NiftyFiftyNFT",
  "abi": [
    {
      "inputs": [],
      "stateMutability": "nonpayable",
      "type": "constructor"
    },
    {
      "anonymous": false,
      "inputs": [
        {
          "indexed": true,
          "internalType": "address",
          "name": "owner",
          "type": "address"
        },
        {
          "indexed": true,
          "internalType": "address",
          "name": "approved",
          "type": "address"
        },
        {
          "indexed": true,
          "internalType": "uint256",
          "name": "tokenId",
          "type": "uint256"
        }
      ],
      "name": "Approval",
      "type": "event"
    },
    {
      "anonymous": false,
      "inputs": [
        {
          "indexed": true,
          "internalType": "address",
          "name": "owner",
          "type": "address"
        },
        {
          "indexed": true,
          "internalType": "address",
          "name": "operator",
          "type": "address"
        },
        {
          "indexed": false,
          "internalType": "bool",
          "name": "approved",
          "type": "bool"
        }
      ],
      "name": "ApprovalForAll",
      "type": "event"
    },
    {
      "anonymous": false,
      "inputs": [
        {
          "indexed": true,
          "internalType": "address",
          "name": "previousOwner",
          "type": "address"
        },
        {
          "indexed": true,
          "internalType": "address",
          "name": "newOwner",
          "type": "address"
        }
      ],
      "name": "OwnershipTransferred",
      "type": "event"
    },
    {
      "anonymous": false,
      "inputs": [
        {
          "indexed": true,
          "internalType": "address",
          "name": "from",
          "type": "address"
        },
        {
          "indexed": true,
          "internalType": "address",
          "name": "to",
          "type": "address"
        },
        {
          "indexed": true,
          "internalType": "uint256",
          "name": "tokenId",
          "type": "uint256"
        }
      ],
      "name": "Transfer",
      "type": "event"
    },
    {
      "inputs": [
        {
          "internalType": "address",
          "name": "to",
          "type": "address"
        },
        {
          "internalType": "uint256",
          "name": "tokenId",
          "type": "uint256"
        }
      ],
      "name": "approve",
      "outputs": [],
      "stateMutability": "nonpayable",
      "type": "function"
    },
    {
      "inputs": [
        {
          "internalType": "address",
          "name": "owner",
          "type": "address"
        }
      ],
      "name": "balanceOf",
      "outputs": [
        {
          "internalType": "uint256",
          "name": "",
          "type": "uint256"
        }
      ],
      "stateMutability": "view",
      "type": "function",
      "constant": true
    },
    {
      "inputs": [
        {
          "internalType": "uint256",
          "name": "tokenId",
          "type": "uint256"
        }
      ],
      "name": "getApproved",
      "outputs": [
        {
          "internalType": "address",
          "name": "",
          "type": "address"
        }
      ],
      "stateMutability": "view",
      "type": "function",
      "constant": true
    },
    {
      "inputs": [
        {
          "internalType": "address",
          "name": "owner",
          "type": "address"
        },
        {
          "internalType": "address",
          "name": "operator",
          "type": "address"
        }
      ],
      "name": "isApprovedForAll",
      "outputs": [
        {
          "internalType": "bool",
          "name": "",
          "type": "bool"
        }
      ],
      "stateMutability": "view",
      "type": "function",
      "constant": true
    },
    {
      "inputs": [],
      "name": "name",
      "outputs": [
        {
          "internalType": "string",
          "name": "",
          "type": "string"
        }
      ],
      "stateMutability": "view",
      "type": "function",
      "constant": true
    },
    {
      "inputs": [],
      "name": "owner",
      "outputs": [
        {
          "internalType": "address",
          "name": "",
          "type": "address"
        }
      ],
      "stateMutability": "view",
      "type": "function",
      "constant": true
    },
    {
      "inputs": [
        {
          "internalType": "uint256",
          "name": "tokenId",
          "type": "uint256"
        }
      ],
      "name": "ownerOf",
      "outputs": [
        {
          "internalType": "address",
          "name": "",
          "type": "address"
        }
      ],
      "stateMutability": "view",
      "type": "function",
      "constant": true
    },
    {
      "inputs": [],
      "name": "renounceOwnership",
      "outputs": [],
      "stateMutability": "nonpayable",
      "type": "function"
    },
    {
      "inputs": [
        {
          "internalType": "address",
          "name": "operator",
          "type": "address"
        },
        {
          "internalType": "bool",
          "name": "approved",
          "type": "bool"
        }
      ],
      "name": "setApprovalForAll",
      "outputs": [],
      "stateMutability": "nonpayable",
      "type": "function"
    },
    {
      "inputs": [
        {
          "internalType": "bytes4",
          "name": "interfaceId",
          "type": "bytes4"
        }
      ],
      "name": "supportsInterface",
      "outputs": [
        {
          "internalType": "bool",
          "name": "",
          "type": "bool"
        }
      ],
      "stateMutability": "view",
      "type": "function",
      "constant": true
    },
    {
      "inputs": [],
      "name": "symbol",
      "outputs": [
        {
          "internalType": "string",
          "name": "",
          "type": "string"
        }
      ],
      "stateMutability": "view",
      "type": "function",
      "constant": true
    },
    {
      "inputs": [
        {
          "internalType": "uint256",
          "name": "tokenId",
          "type": "uint256"
        }
      ],
      "name": "tokenURI",
      "outputs": [
        {
          "internalType": "string",
          "name": "",
          "type": "string"
        }
      ],
      "stateMutability": "view",
      "type": "function",
      "constant": true
    },
    {
      "inputs": [
        {
          "internalType": "address",
          "name": "newOwner",
          "type": "address"
        }
      ],
      "name": "transferOwnership",
      "outputs": [],
      "stateMutability": "nonpayable",
      "type": "function"
    },
    {
      "inputs": [
        {
          "internalType": "uint256",
          "name": "count",
          "type": "uint256"
        }
      ],
      "name": "updateMaxRoyaltyCount",
      "outputs": [],
      "stateMutability": "nonpayable",
      "type": "function"
    },
    {
      "inputs": [
        {
          "internalType": "uint256",
          "name": "tokenId",
          "type": "uint256"
        }
      ],
      "name": "getRoyaltyDetails",
      "outputs": [
        {
          "internalType": "address",
          "name": "",
          "type": "address"
        },
        {
          "internalType": "uint256",
          "name": "",
          "type": "uint256"
        },
        {
          "internalType": "address",
          "name": "",
          "type": "address"
        },
        {
          "internalType": "uint256",
          "name": "",
          "type": "uint256"
        }
      ],
      "stateMutability": "view",
      "type": "function",
      "constant": true
    },
    {
      "inputs": [
        {
          "internalType": "address",
          "name": "artist",
          "type": "address"
        }
      ],
      "name": "getTokenIds",
      "outputs": [
        {
          "internalType": "uint256[]",
          "name": "",
          "type": "uint256[]"
        }
      ],
      "stateMutability": "view",
      "type": "function",
      "constant": true
    },
    {
      "inputs": [
        {
          "internalType": "address",
          "name": "_royaltyToken",
          "type": "address"
        },
        {
          "internalType": "uint256",
          "name": "_amount",
          "type": "uint256"
        },
        {
          "internalType": "string",
          "name": "_tokenURI",
          "type": "string"
        }
      ],
      "name": "mint",
      "outputs": [],
      "stateMutability": "nonpayable",
      "type": "function"
    },
    {
      "inputs": [
        {
          "internalType": "address",
          "name": "from",
          "type": "address"
        },
        {
          "internalType": "address",
          "name": "to",
          "type": "address"
        },
        {
          "internalType": "uint256",
          "name": "tokenId",
          "type": "uint256"
        }
      ],
      "name": "transferFrom",
      "outputs": [],
      "stateMutability": "nonpayable",
      "type": "function"
    },
    {
      "inputs": [
        {
          "internalType": "address",
          "name": "from",
          "type": "address"
        },
        {
          "internalType": "address",
          "name": "to",
          "type": "address"
        },
        {
          "internalType": "uint256",
          "name": "tokenId",
          "type": "uint256"
        }
      ],
      "name": "safeTransferFrom",
      "outputs": [],
      "stateMutability": "nonpayable",
      "type": "function"
    },
    {
      "inputs": [
        {
          "internalType": "address",
          "name": "from",
          "type": "address"
        },
        {
          "internalType": "address",
          "name": "to",
          "type": "address"
        },
        {
          "internalType": "uint256",
          "name": "tokenId",
          "type": "uint256"
        },
        {
          "internalType": "bytes",
          "name": "_data",
          "type": "bytes"
        }
      ],
      "name": "safeTransferFrom",
      "outputs": [],
      "stateMutability": "nonpayable",
      "type": "function"
    }
  ],
  "bytecode": "0x60806040523480156200001157600080fd5b506040518060400160405280600d81526020017f4e6966747946696674794e4654000000000000000000000000000000000000008152506040518060400160405280600681526020017f4e49464e46540000000000000000000000000000000000000000000000000000815250816000908051906020019062000096929190620001ae565b508060019080519060200190620000af929190620001ae565b505050620000d2620000c6620000e060201b60201c565b620000e860201b60201c565b600a600b81905550620002c3565b600033905090565b6000600760009054906101000a900473ffffffffffffffffffffffffffffffffffffffff16905081600760006101000a81548173ffffffffffffffffffffffffffffffffffffffff021916908373ffffffffffffffffffffffffffffffffffffffff1602179055508173ffffffffffffffffffffffffffffffffffffffff168173ffffffffffffffffffffffffffffffffffffffff167f8be0079c531659141344cd1fd0a4f28419497f9722a3daafe3b4186f6b6457e060405160405180910390a35050565b828054620001bc906200025e565b90600052602060002090601f016020900481019282620001e057600085556200022c565b82601f10620001fb57805160ff19168380011785556200022c565b828001600101855582156200022c579182015b828111156200022b5782518255916020019190600101906200020e565b5b5090506200023b91906200023f565b5090565b5b808211156200025a57600081600090555060010162000240565b5090565b600060028204905060018216806200027757607f821691505b602082108114156200028e576200028d62000294565b5b50919050565b7f4e487b7100000000000000000000000000000000000000000000000000000000600052602260045260246000fd5b613a7680620002d36000396000f3fe608060405234801561001057600080fd5b506004361061012c5760003560e01c8063715018a6116100ad578063c87b56dd11610071578063c87b56dd14610330578063d004b03614610360578063d3fc986414610390578063e985e9c5146103ac578063f2fde38b146103dc5761012c565b8063715018a6146102b25780638da5cb5b146102bc57806395d89b41146102da578063a22cb465146102f8578063b88d4fde146103145761012c565b806313751c9d116100f457806313751c9d146101fe57806323b872dd1461021a57806342842e0e146102365780636352211e1461025257806370a08231146102825761012c565b806301ffc9a71461013157806306fdde0314610161578063081812fc1461017f578063095ea7b3146101af57806312fb2d2d146101cb575b600080fd5b61014b600480360381019061014691906127ad565b6103f8565b60405161015891906132d5565b60405180910390f35b6101696104da565b60405161017691906132f0565b60405180910390f35b610199600480360381019061019491906127ff565b61056c565b6040516101a691906131d0565b60405180910390f35b6101c960048036038101906101c491906126e1565b6105f1565b005b6101e560048036038101906101e091906127ff565b610709565b6040516101f5949392919061326e565b60405180910390f35b610218600480360381019061021391906127ff565b6107ba565b005b610234600480360381019061022f91906125db565b610840565b005b610250600480360381019061024b91906125db565b6108aa565b005b61026c600480360381019061026791906127ff565b6108d4565b60405161027991906131d0565b60405180910390f35b61029c60048036038101906102979190612576565b610986565b6040516102a991906135d2565b60405180910390f35b6102ba610a3e565b005b6102c4610ac6565b6040516102d191906131d0565b60405180910390f35b6102e2610af0565b6040516102ef91906132f0565b60405180910390f35b610312600480360381019061030d91906126a5565b610b82565b005b61032e6004803603810190610329919061262a565b610b98565b005b61034a600480360381019061034591906127ff565b610c04565b60405161035791906132f0565b60405180910390f35b61037a60048036038101906103759190612576565b610d56565b60405161038791906132b3565b60405180910390f35b6103aa60048036038101906103a5919061271d565b610ded565b005b6103c660048036038101906103c1919061259f565b610fc6565b6040516103d391906132d5565b60405180910390f35b6103f660048036038101906103f19190612576565b61105a565b005b60007f80ac58cd000000000000000000000000000000000000000000000000000000007bffffffffffffffffffffffffffffffffffffffffffffffffffffffff1916827bffffffffffffffffffffffffffffffffffffffffffffffffffffffff191614806104c357507f5b5e139f000000000000000000000000000000000000000000000000000000007bffffffffffffffffffffffffffffffffffffffffffffffffffffffff1916827bffffffffffffffffffffffffffffffffffffffffffffffffffffffff1916145b806104d357506104d282611152565b5b9050919050565b6060600080546104e99061386b565b80601f01602080910402602001604051908101604052809291908181526020018280546105159061386b565b80156105625780601f1061053757610100808354040283529160200191610562565b820191906000526020600020905b81548152906001019060200180831161054557829003601f168201915b5050505050905090565b6000610577826111bc565b6105b6576040517f08c379a00000000000000000000000000000000000000000000000000000000081526004016105ad906134b2565b60405180910390fd5b6004600083815260200190815260200160002060009054906101000a900473ffffffffffffffffffffffffffffffffffffffff169050919050565b60006105fc826108d4565b90508073ffffffffffffffffffffffffffffffffffffffff168373ffffffffffffffffffffffffffffffffffffffff16141561066d576040517f08c379a000000000000000000000000000000000000000000000000000000000815260040161066490613552565b60405180910390fd5b8073ffffffffffffffffffffffffffffffffffffffff1661068c611228565b73ffffffffffffffffffffffffffffffffffffffff1614806106bb57506106ba816106b5611228565b610fc6565b5b6106fa576040517f08c379a00000000000000000000000000000000000000000000000000000000081526004016106f1906133f2565b60405180910390fd5b6107048383611230565b505050565b600080600080600a600086815260200190815260200160002060000160009054906101000a900473ffffffffffffffffffffffffffffffffffffffff16600a600087815260200190815260200160002060010154600a600088815260200190815260200160002060020160009054906101000a900473ffffffffffffffffffffffffffffffffffffffff16600a60008981526020019081526020016000206003015493509350935093509193509193565b6107c2611228565b73ffffffffffffffffffffffffffffffffffffffff166107e0610ac6565b73ffffffffffffffffffffffffffffffffffffffff1614610836576040517f08c379a000000000000000000000000000000000000000000000000000000000815260040161082d906134d2565b60405180910390fd5b80600b8190555050565b61085161084b611228565b826112e9565b610890576040517f08c379a000000000000000000000000000000000000000000000000000000000815260040161088790613572565b60405180910390fd5b61089a83826113c7565b6108a5838383611673565b505050565b6108b483826113c7565b6108cf83838360405180602001604052806000815250610b98565b505050565b6000806002600084815260200190815260200160002060009054906101000a900473ffffffffffffffffffffffffffffffffffffffff169050600073ffffffffffffffffffffffffffffffffffffffff168173ffffffffffffffffffffffffffffffffffffffff16141561097d576040517f08c379a000000000000000000000000000000000000000000000000000000000815260040161097490613432565b60405180910390fd5b80915050919050565b60008073ffffffffffffffffffffffffffffffffffffffff168273ffffffffffffffffffffffffffffffffffffffff1614156109f7576040517f08c379a00000000000000000000000000000000000000000000000000000000081526004016109ee90613412565b60405180910390fd5b600360008373ffffffffffffffffffffffffffffffffffffffff1673ffffffffffffffffffffffffffffffffffffffff168152602001908152602001600020549050919050565b610a46611228565b73ffffffffffffffffffffffffffffffffffffffff16610a64610ac6565b73ffffffffffffffffffffffffffffffffffffffff1614610aba576040517f08c379a0000000000000000000000000000000000000000000000000000000008152600401610ab1906134d2565b60405180910390fd5b610ac460006118cf565b565b6000600760009054906101000a900473ffffffffffffffffffffffffffffffffffffffff16905090565b606060018054610aff9061386b565b80601f0160208091040260200160405190810160405280929190818152602001828054610b2b9061386b565b8015610b785780601f10610b4d57610100808354040283529160200191610b78565b820191906000526020600020905b815481529060010190602001808311610b5b57829003601f168201915b5050505050905090565b610b94610b8d611228565b8383611995565b5050565b610ba9610ba3611228565b836112e9565b610be8576040517f08c379a0000000000000000000000000000000000000000000000000000000008152600401610bdf90613572565b60405180910390fd5b610bf284836113c7565b610bfe84848484611b02565b50505050565b6060610c0f826111bc565b610c4e576040517f08c379a0000000000000000000000000000000000000000000000000000000008152600401610c4590613492565b60405180910390fd5b6000600660008481526020019081526020016000208054610c6e9061386b565b80601f0160208091040260200160405190810160405280929190818152602001828054610c9a9061386b565b8015610ce75780601f10610cbc57610100808354040283529160200191610ce7565b820191906000526020600020905b815481529060010190602001808311610cca57829003601f168201915b505050505090506000610cf8611b5e565b9050600081511415610d0e578192505050610d51565b600082511115610d43578082604051602001610d2b9291906131ac565b60405160208183030381529060405292505050610d51565b610d4c84611b75565b925050505b919050565b6060600960008373ffffffffffffffffffffffffffffffffffffffff1673ffffffffffffffffffffffffffffffffffffffff168152602001908152602001600020805480602002602001604051908101604052809291908181526020018280548015610de157602002820191906000526020600020905b815481526020019060010190808311610dcd575b50505050509050919050565b60008211610e30576040517f08c379a0000000000000000000000000000000000000000000000000000000008152600401610e27906133b2565b60405180910390fd5b610e3a6008611c1c565b6000610e466008611c32565b905083600a600083815260200190815260200160002060000160006101000a81548173ffffffffffffffffffffffffffffffffffffffff021916908373ffffffffffffffffffffffffffffffffffffffff16021790555082600a60008381526020019081526020016000206001018190555033600a600083815260200190815260200160002060020160006101000a81548173ffffffffffffffffffffffffffffffffffffffff021916908373ffffffffffffffffffffffffffffffffffffffff160217905550600b54600a6000838152602001908152602001600020600401819055506000600a600083815260200190815260200160002060030181905550610f503382611c40565b600960003373ffffffffffffffffffffffffffffffffffffffff1673ffffffffffffffffffffffffffffffffffffffff168152602001908152602001600020819080600181540180825580915050600190039060005260206000200160009091909190915055610fc08183611e0e565b50505050565b6000600560008473ffffffffffffffffffffffffffffffffffffffff1673ffffffffffffffffffffffffffffffffffffffff16815260200190815260200160002060008373ffffffffffffffffffffffffffffffffffffffff1673ffffffffffffffffffffffffffffffffffffffff16815260200190815260200160002060009054906101000a900460ff16905092915050565b611062611228565b73ffffffffffffffffffffffffffffffffffffffff16611080610ac6565b73ffffffffffffffffffffffffffffffffffffffff16146110d6576040517f08c379a00000000000000000000000000000000000000000000000000000000081526004016110cd906134d2565b60405180910390fd5b600073ffffffffffffffffffffffffffffffffffffffff168173ffffffffffffffffffffffffffffffffffffffff161415611146576040517f08c379a000000000000000000000000000000000000000000000000000000000815260040161113d90613332565b60405180910390fd5b61114f816118cf565b50565b60007f01ffc9a7000000000000000000000000000000000000000000000000000000007bffffffffffffffffffffffffffffffffffffffffffffffffffffffff1916827bffffffffffffffffffffffffffffffffffffffffffffffffffffffff1916149050919050565b60008073ffffffffffffffffffffffffffffffffffffffff166002600084815260200190815260200160002060009054906101000a900473ffffffffffffffffffffffffffffffffffffffff1673ffffffffffffffffffffffffffffffffffffffff1614159050919050565b600033905090565b816004600083815260200190815260200160002060006101000a81548173ffffffffffffffffffffffffffffffffffffffff021916908373ffffffffffffffffffffffffffffffffffffffff160217905550808273ffffffffffffffffffffffffffffffffffffffff166112a3836108d4565b73ffffffffffffffffffffffffffffffffffffffff167f8c5be1e5ebec7d5bd14f71427d1e84f3dd0314c0f7b2291e5b200ac8c7c3b92560405160405180910390a45050565b60006112f4826111bc565b611333576040517f08c379a000000000000000000000000000000000000000000000000000000000815260040161132a906133d2565b60405180910390fd5b600061133e836108d4565b90508073ffffffffffffffffffffffffffffffffffffffff168473ffffffffffffffffffffffffffffffffffffffff1614806113ad57508373ffffffffffffffffffffffffffffffffffffffff166113958461056c565b73ffffffffffffffffffffffffffffffffffffffff16145b806113be57506113bd8185610fc6565b5b91505092915050565b6000600a60008381526020019081526020016000206040518060a00160405290816000820160009054906101000a900473ffffffffffffffffffffffffffffffffffffffff1673ffffffffffffffffffffffffffffffffffffffff1673ffffffffffffffffffffffffffffffffffffffff168152602001600182015481526020016002820160009054906101000a900473ffffffffffffffffffffffffffffffffffffffff1673ffffffffffffffffffffffffffffffffffffffff1673ffffffffffffffffffffffffffffffffffffffff168152602001600382015481526020016004820154815250509050600081600001519050816080015182606001511061156157816040015173ffffffffffffffffffffffffffffffffffffffff168473ffffffffffffffffffffffffffffffffffffffff161461155c576000611518828685604001518660200151611e82565b90508061155a576040517f08c379a0000000000000000000000000000000000000000000000000000000008152600401611551906135b2565b60405180910390fd5b505b61166d565b600061157b60028460200151611fe890919063ffffffff16565b90506115a76001600a600087815260200190815260200160002060030154611ffe90919063ffffffff16565b600a60008681526020019081526020016000206003018190555060006115d683876115d0610ac6565b85611e82565b905080611618576040517f08c379a000000000000000000000000000000000000000000000000000000000815260040161160f90613592565b60405180910390fd5b6116288387866040015185611e82565b90508061166a576040517f08c379a0000000000000000000000000000000000000000000000000000000008152600401611661906135b2565b60405180910390fd5b50505b50505050565b8273ffffffffffffffffffffffffffffffffffffffff16611693826108d4565b73ffffffffffffffffffffffffffffffffffffffff16146116e9576040517f08c379a00000000000000000000000000000000000000000000000000000000081526004016116e0906134f2565b60405180910390fd5b600073ffffffffffffffffffffffffffffffffffffffff168273ffffffffffffffffffffffffffffffffffffffff161415611759576040517f08c379a000000000000000000000000000000000000000000000000000000000815260040161175090613372565b60405180910390fd5b611764838383612014565b61176f600082611230565b6001600360008573ffffffffffffffffffffffffffffffffffffffff1673ffffffffffffffffffffffffffffffffffffffff16815260200190815260200160002060008282546117bf9190613781565b925050819055506001600360008473ffffffffffffffffffffffffffffffffffffffff1673ffffffffffffffffffffffffffffffffffffffff168152602001908152602001600020600082825461181691906136fa565b92505081905550816002600083815260200190815260200160002060006101000a81548173ffffffffffffffffffffffffffffffffffffffff021916908373ffffffffffffffffffffffffffffffffffffffff160217905550808273ffffffffffffffffffffffffffffffffffffffff168473ffffffffffffffffffffffffffffffffffffffff167fddf252ad1be2c89b69c2b068fc378daa952ba7f163c4a11628f55a4df523b3ef60405160405180910390a4505050565b6000600760009054906101000a900473ffffffffffffffffffffffffffffffffffffffff16905081600760006101000a81548173ffffffffffffffffffffffffffffffffffffffff021916908373ffffffffffffffffffffffffffffffffffffffff1602179055508173ffffffffffffffffffffffffffffffffffffffff168173ffffffffffffffffffffffffffffffffffffffff167f8be0079c531659141344cd1fd0a4f28419497f9722a3daafe3b4186f6b6457e060405160405180910390a35050565b8173ffffffffffffffffffffffffffffffffffffffff168373ffffffffffffffffffffffffffffffffffffffff161415611a04576040517f08c379a00000000000000000000000000000000000000000000000000000000081526004016119fb90613392565b60405180910390fd5b80600560008573ffffffffffffffffffffffffffffffffffffffff1673ffffffffffffffffffffffffffffffffffffffff16815260200190815260200160002060008473ffffffffffffffffffffffffffffffffffffffff1673ffffffffffffffffffffffffffffffffffffffff16815260200190815260200160002060006101000a81548160ff0219169083151502179055508173ffffffffffffffffffffffffffffffffffffffff168373ffffffffffffffffffffffffffffffffffffffff167f17307eab39ab6107e8899845ad3d59bd9653f200f220920489ca2b5937696c3183604051611af591906132d5565b60405180910390a3505050565b611b0d848484611673565b611b1984848484612019565b611b58576040517f08c379a0000000000000000000000000000000000000000000000000000000008152600401611b4f90613312565b60405180910390fd5b50505050565b606060405180602001604052806000815250905090565b6060611b80826111bc565b611bbf576040517f08c379a0000000000000000000000000000000000000000000000000000000008152600401611bb690613512565b60405180910390fd5b6000611bc9611b5e565b90506000815111611be95760405180602001604052806000815250611c14565b80611bf3846121b0565b604051602001611c049291906131ac565b6040516020818303038152906040525b915050919050565b6001816000016000828254019250508190555050565b600081600001549050919050565b600073ffffffffffffffffffffffffffffffffffffffff168273ffffffffffffffffffffffffffffffffffffffff161415611cb0576040517f08c379a0000000000000000000000000000000000000000000000000000000008152600401611ca790613472565b60405180910390fd5b611cb9816111bc565b15611cf9576040517f08c379a0000000000000000000000000000000000000000000000000000000008152600401611cf090613352565b60405180910390fd5b611d0560008383612014565b6001600360008473ffffffffffffffffffffffffffffffffffffffff1673ffffffffffffffffffffffffffffffffffffffff1681526020019081526020016000206000828254611d5591906136fa565b92505081905550816002600083815260200190815260200160002060006101000a81548173ffffffffffffffffffffffffffffffffffffffff021916908373ffffffffffffffffffffffffffffffffffffffff160217905550808273ffffffffffffffffffffffffffffffffffffffff16600073ffffffffffffffffffffffffffffffffffffffff167fddf252ad1be2c89b69c2b068fc378daa952ba7f163c4a11628f55a4df523b3ef60405160405180910390a45050565b611e17826111bc565b611e56576040517f08c379a0000000000000000000000000000000000000000000000000000000008152600401611e4d90613452565b60405180910390fd5b80600660008481526020019081526020016000209080519060200190611e7d929190612370565b505050565b60008473ffffffffffffffffffffffffffffffffffffffff166370a08231856040518263ffffffff1660e01b8152600401611ebd91906131d0565b60206040518083038186803b158015611ed557600080fd5b505afa158015611ee9573d6000803e3d6000fd5b505050506040513d601f19601f82011682018060405250810190611f0d9190612828565b821115611f4f576040517f08c379a0000000000000000000000000000000000000000000000000000000008152600401611f4690613532565b60405180910390fd5b8473ffffffffffffffffffffffffffffffffffffffff166323b872dd8585856040518463ffffffff1660e01b8152600401611f8c939291906131eb565b602060405180830381600087803b158015611fa657600080fd5b505af1158015611fba573d6000803e3d6000fd5b505050506040513d601f19601f82011682018060405250810190611fde9190612784565b9050949350505050565b60008183611ff69190613750565b905092915050565b6000818361200c91906136fa565b905092915050565b505050565b600061203a8473ffffffffffffffffffffffffffffffffffffffff1661235d565b156121a3578373ffffffffffffffffffffffffffffffffffffffff1663150b7a02612063611228565b8786866040518563ffffffff1660e01b81526004016120859493929190613222565b602060405180830381600087803b15801561209f57600080fd5b505af19250505080156120d057506040513d601f19601f820116820180604052508101906120cd91906127d6565b60015b612153573d8060008114612100576040519150601f19603f3d011682016040523d82523d6000602084013e612105565b606091505b5060008151141561214b576040517f08c379a000000000000000000000000000000000000000000000000000000000815260040161214290613312565b60405180910390fd5b805181602001fd5b63150b7a0260e01b7bffffffffffffffffffffffffffffffffffffffffffffffffffffffff1916817bffffffffffffffffffffffffffffffffffffffffffffffffffffffff1916149150506121a8565b600190505b949350505050565b606060008214156121f8576040518060400160405280600181526020017f30000000000000000000000000000000000000000000000000000000000000008152509050612358565b600082905060005b6000821461222a5780806122139061389d565b915050600a826122239190613750565b9150612200565b60008167ffffffffffffffff81111561226c577f4e487b7100000000000000000000000000000000000000000000000000000000600052604160045260246000fd5b6040519080825280601f01601f19166020018201604052801561229e5781602001600182028036833780820191505090505b5090505b60008514612351576001826122b79190613781565b9150600a856122c691906138e6565b60306122d291906136fa565b60f81b81838151811061230e577f4e487b7100000000000000000000000000000000000000000000000000000000600052603260045260246000fd5b60200101907effffffffffffffffffffffffffffffffffffffffffffffffffffffffffffff1916908160001a905350600a8561234a9190613750565b94506122a2565b8093505050505b919050565b600080823b905060008111915050919050565b82805461237c9061386b565b90600052602060002090601f01602090048101928261239e57600085556123e5565b82601f106123b757805160ff19168380011785556123e5565b828001600101855582156123e5579182015b828111156123e45782518255916020019190600101906123c9565b5b5090506123f291906123f6565b5090565b5b8082111561240f5760008160009055506001016123f7565b5090565b60006124266124218461361e565b6135ed565b90508281526020810184848401111561243e57600080fd5b612449848285613829565b509392505050565b600061246461245f8461364e565b6135ed565b90508281526020810184848401111561247c57600080fd5b612487848285613829565b509392505050565b60008135905061249e816139e4565b92915050565b6000813590506124b3816139fb565b92915050565b6000815190506124c8816139fb565b92915050565b6000813590506124dd81613a12565b92915050565b6000815190506124f281613a12565b92915050565b600082601f83011261250957600080fd5b8135612519848260208601612413565b91505092915050565b600082601f83011261253357600080fd5b8135612543848260208601612451565b91505092915050565b60008135905061255b81613a29565b92915050565b60008151905061257081613a29565b92915050565b60006020828403121561258857600080fd5b60006125968482850161248f565b91505092915050565b600080604083850312156125b257600080fd5b60006125c08582860161248f565b92505060206125d18582860161248f565b9150509250929050565b6000806000606084860312156125f057600080fd5b60006125fe8682870161248f565b935050602061260f8682870161248f565b92505060406126208682870161254c565b9150509250925092565b6000806000806080858703121561264057600080fd5b600061264e8782880161248f565b945050602061265f8782880161248f565b93505060406126708782880161254c565b925050606085013567ffffffffffffffff81111561268d57600080fd5b612699878288016124f8565b91505092959194509250565b600080604083850312156126b857600080fd5b60006126c68582860161248f565b92505060206126d7858286016124a4565b9150509250929050565b600080604083850312156126f457600080fd5b60006127028582860161248f565b92505060206127138582860161254c565b9150509250929050565b60008060006060848603121561273257600080fd5b60006127408682870161248f565b93505060206127518682870161254c565b925050604084013567ffffffffffffffff81111561276e57600080fd5b61277a86828701612522565b9150509250925092565b60006020828403121561279657600080fd5b60006127a4848285016124b9565b91505092915050565b6000602082840312156127bf57600080fd5b60006127cd848285016124ce565b91505092915050565b6000602082840312156127e857600080fd5b60006127f6848285016124e3565b91505092915050565b60006020828403121561281157600080fd5b600061281f8482850161254c565b91505092915050565b60006020828403121561283a57600080fd5b600061284884828501612561565b91505092915050565b600061285d838361318e565b60208301905092915050565b612872816137b5565b82525050565b60006128838261368e565b61288d81856136bc565b93506128988361367e565b8060005b838110156128c95781516128b08882612851565b97506128bb836136af565b92505060018101905061289c565b5085935050505092915050565b6128df816137c7565b82525050565b60006128f082613699565b6128fa81856136cd565b935061290a818560208601613838565b612913816139d3565b840191505092915050565b6000612929826136a4565b61293381856136de565b9350612943818560208601613838565b61294c816139d3565b840191505092915050565b6000612962826136a4565b61296c81856136ef565b935061297c818560208601613838565b80840191505092915050565b60006129956032836136de565b91507f4552433732313a207472616e7366657220746f206e6f6e20455243373231526560008301527f63656976657220696d706c656d656e74657200000000000000000000000000006020830152604082019050919050565b60006129fb6026836136de565b91507f4f776e61626c653a206e6577206f776e657220697320746865207a65726f206160008301527f64647265737300000000000000000000000000000000000000000000000000006020830152604082019050919050565b6000612a61601c836136de565b91507f4552433732313a20746f6b656e20616c7265616479206d696e746564000000006000830152602082019050919050565b6000612aa16024836136de565b91507f4552433732313a207472616e7366657220746f20746865207a65726f2061646460008301527f72657373000000000000000000000000000000000000000000000000000000006020830152604082019050919050565b6000612b076019836136de565b91507f4552433732313a20617070726f766520746f2063616c6c6572000000000000006000830152602082019050919050565b6000612b476025836136de565b91507f526f79616c747920616d6f756e742073686f756c64206265206d6f726520746860008301527f616e20302e0000000000000000000000000000000000000000000000000000006020830152604082019050919050565b6000612bad602c836136de565b91507f4552433732313a206f70657261746f7220717565727920666f72206e6f6e657860008301527f697374656e7420746f6b656e00000000000000000000000000000000000000006020830152604082019050919050565b6000612c136038836136de565b91507f4552433732313a20617070726f76652063616c6c6572206973206e6f74206f7760008301527f6e6572206e6f7220617070726f76656420666f7220616c6c00000000000000006020830152604082019050919050565b6000612c79602a836136de565b91507f4552433732313a2062616c616e636520717565727920666f7220746865207a6560008301527f726f2061646472657373000000000000000000000000000000000000000000006020830152604082019050919050565b6000612cdf6029836136de565b91507f4552433732313a206f776e657220717565727920666f72206e6f6e657869737460008301527f656e7420746f6b656e00000000000000000000000000000000000000000000006020830152604082019050919050565b6000612d45602e836136de565b91507f45524337323155524953746f726167653a2055524920736574206f66206e6f6e60008301527f6578697374656e7420746f6b656e0000000000000000000000000000000000006020830152604082019050919050565b6000612dab6020836136de565b91507f4552433732313a206d696e7420746f20746865207a65726f20616464726573736000830152602082019050919050565b6000612deb6031836136de565b91507f45524337323155524953746f726167653a2055524920717565727920666f722060008301527f6e6f6e6578697374656e7420746f6b656e0000000000000000000000000000006020830152604082019050919050565b6000612e51602c836136de565b91507f4552433732313a20617070726f76656420717565727920666f72206e6f6e657860008301527f697374656e7420746f6b656e00000000000000000000000000000000000000006020830152604082019050919050565b6000612eb76020836136de565b91507f4f776e61626c653a2063616c6c6572206973206e6f7420746865206f776e65726000830152602082019050919050565b6000612ef76029836136de565b91507f4552433732313a207472616e73666572206f6620746f6b656e2074686174206960008301527f73206e6f74206f776e00000000000000000000000000000000000000000000006020830152604082019050919050565b6000612f5d602f836136de565b91507f4552433732314d657461646174613a2055524920717565727920666f72206e6f60008301527f6e6578697374656e7420746f6b656e00000000000000000000000000000000006020830152604082019050919050565b6000612fc36013836136de565b91507f4e6f7420656e6f7567682062616c616e63652e000000000000000000000000006000830152602082019050919050565b60006130036021836136de565b91507f4552433732313a20617070726f76616c20746f2063757272656e74206f776e6560008301527f72000000000000000000000000000000000000000000000000000000000000006020830152604082019050919050565b60006130696031836136de565b91507f4552433732313a207472616e736665722063616c6c6572206973206e6f74206f60008301527f776e6572206e6f7220617070726f7665640000000000000000000000000000006020830152604082019050919050565b60006130cf6021836136de565b91507f526f79616c7479207472616e7366657220746f206f776e6572206661696c656460008301527f2e000000000000000000000000000000000000000000000000000000000000006020830152604082019050919050565b60006131356022836136de565b91507f526f79616c7479207472616e7366657220746f20617274697374206661696c6560008301527f642e0000000000000000000000000000000000000000000000000000000000006020830152604082019050919050565b6131978161381f565b82525050565b6131a68161381f565b82525050565b60006131b88285612957565b91506131c48284612957565b91508190509392505050565b60006020820190506131e56000830184612869565b92915050565b60006060820190506132006000830186612869565b61320d6020830185612869565b61321a604083018461319d565b949350505050565b60006080820190506132376000830187612869565b6132446020830186612869565b613251604083018561319d565b818103606083015261326381846128e5565b905095945050505050565b60006080820190506132836000830187612869565b613290602083018661319d565b61329d6040830185612869565b6132aa606083018461319d565b95945050505050565b600060208201905081810360008301526132cd8184612878565b905092915050565b60006020820190506132ea60008301846128d6565b92915050565b6000602082019050818103600083015261330a818461291e565b905092915050565b6000602082019050818103600083015261332b81612988565b9050919050565b6000602082019050818103600083015261334b816129ee565b9050919050565b6000602082019050818103600083015261336b81612a54565b9050919050565b6000602082019050818103600083015261338b81612a94565b9050919050565b600060208201905081810360008301526133ab81612afa565b9050919050565b600060208201905081810360008301526133cb81612b3a565b9050919050565b600060208201905081810360008301526133eb81612ba0565b9050919050565b6000602082019050818103600083015261340b81612c06565b9050919050565b6000602082019050818103600083015261342b81612c6c565b9050919050565b6000602082019050818103600083015261344b81612cd2565b9050919050565b6000602082019050818103600083015261346b81612d38565b9050919050565b6000602082019050818103600083015261348b81612d9e565b9050919050565b600060208201905081810360008301526134ab81612dde565b9050919050565b600060208201905081810360008301526134cb81612e44565b9050919050565b600060208201905081810360008301526134eb81612eaa565b9050919050565b6000602082019050818103600083015261350b81612eea565b9050919050565b6000602082019050818103600083015261352b81612f50565b9050919050565b6000602082019050818103600083015261354b81612fb6565b9050919050565b6000602082019050818103600083015261356b81612ff6565b9050919050565b6000602082019050818103600083015261358b8161305c565b9050919050565b600060208201905081810360008301526135ab816130c2565b9050919050565b600060208201905081810360008301526135cb81613128565b9050919050565b60006020820190506135e7600083018461319d565b92915050565b6000604051905081810181811067ffffffffffffffff82111715613614576136136139a4565b5b8060405250919050565b600067ffffffffffffffff821115613639576136386139a4565b5b601f19601f8301169050602081019050919050565b600067ffffffffffffffff821115613669576136686139a4565b5b601f19601f8301169050602081019050919050565b6000819050602082019050919050565b600081519050919050565b600081519050919050565b600081519050919050565b6000602082019050919050565b600082825260208201905092915050565b600082825260208201905092915050565b600082825260208201905092915050565b600081905092915050565b60006137058261381f565b91506137108361381f565b9250827fffffffffffffffffffffffffffffffffffffffffffffffffffffffffffffffff0382111561374557613744613917565b5b828201905092915050565b600061375b8261381f565b91506137668361381f565b92508261377657613775613946565b5b828204905092915050565b600061378c8261381f565b91506137978361381f565b9250828210156137aa576137a9613917565b5b828203905092915050565b60006137c0826137ff565b9050919050565b60008115159050919050565b60007fffffffff0000000000000000000000000000000000000000000000000000000082169050919050565b600073ffffffffffffffffffffffffffffffffffffffff82169050919050565b6000819050919050565b82818337600083830152505050565b60005b8381101561385657808201518184015260208101905061383b565b83811115613865576000848401525b50505050565b6000600282049050600182168061388357607f821691505b6020821081141561389757613896613975565b5b50919050565b60006138a88261381f565b91507fffffffffffffffffffffffffffffffffffffffffffffffffffffffffffffffff8214156138db576138da613917565b5b600182019050919050565b60006138f18261381f565b91506138fc8361381f565b92508261390c5761390b613946565b5b828206905092915050565b7f4e487b7100000000000000000000000000000000000000000000000000000000600052601160045260246000fd5b7f4e487b7100000000000000000000000000000000000000000000000000000000600052601260045260246000fd5b7f4e487b7100000000000000000000000000000000000000000000000000000000600052602260045260246000fd5b7f4e487b7100000000000000000000000000000000000000000000000000000000600052604160045260246000fd5b6000601f19601f8301169050919050565b6139ed816137b5565b81146139f857600080fd5b50565b613a04816137c7565b8114613a0f57600080fd5b50565b613a1b816137d3565b8114613a2657600080fd5b50565b613a328161381f565b8114613a3d57600080fd5b5056fea26469706673582212200f52d3d4593050907a31458663a8e43396db2e5446ba2290c01a996bc3ddcded64736f6c63430008000033",
  "immutableReferences": {},
  "source": "// SPDX-License-Identifier: MIT\n\npragma solidity 0.8.0;\n\nimport \"@openzeppelin/contracts/token/ERC721/ERC721.sol\";\nimport \"@openzeppelin/contracts/token/ERC721/extensions/ERC721URIStorage.sol\";\nimport \"@openzeppelin/contracts/token/ERC20/IERC20.sol\";\nimport \"@openzeppelin/contracts/access/Ownable.sol\";\nimport \"@openzeppelin/contracts/utils/Counters.sol\";\nimport \"@openzeppelin/contracts/utils/math/SafeMath.sol\";\nimport \"@openzeppelin/contracts/security/ReentrancyGuard.sol\";\n\n/// @title NiftyFiftyNFT - NFT Contract for minting Royalty NFTs for transfers (sales/trade) with royalty sharing with the contract owner.\n/// @notice You may use this contract for basic minting and transfer functionalities.\n/// @dev Based on ERC721 implementation from OpenZeppelin - This was created for the Consensys Blockchain Project for learning purposes \ncontract NiftyFiftyNFT is ERC721URIStorage, Ownable {\n    using Counters for Counters.Counter;\n    using SafeMath for uint;\n\n    /// @dev Token counter for NFTs minted\n    Counters.Counter tokenIdCounter;\n\n    struct RoyaltyDetail {\n        address royaltyToken;\n        uint amount;\n        address artist;\n        uint counter;\n        uint maxRoyaltyCount;\n    }\n\n    /// @dev Token mapping for each artist of the NFT\n    mapping(address => uint[]) internal tokenIdMap;\n\n    /// @dev Royalty details mapping for each tokenId\n    mapping(uint => RoyaltyDetail) internal royaltyDetails;\n\n    /// @dev Total number of transfers that royalty will be shared with the contract owner\n    uint maxRoyaltyCount;\n\n    /// @notice Constructor\n    constructor() ERC721('NiftyFiftyNFT', 'NIFNFT') {\n        // this can be changed later on\n        maxRoyaltyCount = 10;\n    }\n\n    /// @notice change the default maximum number of royalty sharing count for subsequent minting\n    function updateMaxRoyaltyCount(uint count) public onlyOwner {\n        maxRoyaltyCount = count;\n    }\n\n    /// @dev Accessor for the royalty details for a given NFT tokenId\n    /// @param tokenId tokenId of the NFT\n    /// @return royaltyDetails\n    function getRoyaltyDetails(uint tokenId) public view returns (address, uint, address, uint) {\n        return (royaltyDetails[tokenId].royaltyToken, royaltyDetails[tokenId].amount, royaltyDetails[tokenId].artist,\n          royaltyDetails[tokenId].counter);\n    }\n\n    /// @dev Accessor for the tokenIds available for an artist\n    /// @param artist NFT artist address\n    /// @return array of tokenIds minted by an artist\n    function getTokenIds(address artist) public view returns (uint [] memory) {\n        return tokenIdMap[artist];\n    }\n\n    /// @dev Mint an NFT\n    /// @param _royaltyToken ERC20 contract address for the preferred royalty token\n    /// @param _amount Amount of the royalty token\n    /// @param _tokenURI URI that stores the NFT metadata\n    function mint(address _royaltyToken, uint _amount, string memory _tokenURI) public {\n        require(_amount > 0, \"Royalty amount should be more than 0.\");\n        tokenIdCounter.increment();\n        uint tokenId = tokenIdCounter.current();\n        royaltyDetails[tokenId].royaltyToken = _royaltyToken;\n        royaltyDetails[tokenId].amount = _amount;\n        royaltyDetails[tokenId].artist = msg.sender;\n        royaltyDetails[tokenId].maxRoyaltyCount = maxRoyaltyCount;\n        royaltyDetails[tokenId].counter = 0;\n        _mint(msg.sender, tokenId);\n        tokenIdMap[msg.sender].push(tokenId);\n        _setTokenURI(tokenId, _tokenURI);\n    }\n\n    /// @dev Royalty splitting and payment\n    /// @param from Address of the party paying the royalty\n    /// @param tokenId tokenId of the NFT being paid for\n    function _payRoyalty(address from, uint tokenId) internal {\n        RoyaltyDetail memory _rdetails = royaltyDetails[tokenId];\n        IERC20 token = IERC20(_rdetails.royaltyToken);\n        if (_rdetails.counter >= _rdetails.maxRoyaltyCount) {\n            if (from != _rdetails.artist) {\n                bool success = transferERC20Token(token, from, _rdetails.artist, _rdetails.amount);\n                require(success, \"Royalty transfer to artist failed.\");\n            }\n        } else {\n            uint split = _rdetails.amount.div(2);\n            royaltyDetails[tokenId].counter = royaltyDetails[tokenId].counter.add(1);\n            bool success = transferERC20Token(token, from, owner(), split);\n            require(success, \"Royalty transfer to owner failed.\");\n            success = transferERC20Token(token, from, _rdetails.artist, split);\n            require(success, \"Royalty transfer to artist failed.\");\n        }\n    }\n\n    function transferERC20Token(IERC20 token, address from, address to, uint amount) internal returns (bool) {\n        require(amount <= token.balanceOf(from), \"Not enough balance.\");\n        return token.transferFrom(from, to, amount);\n    }\n\n    /// @dev Overridden function to add logic to pay the royalty for every transfer\n    /// @param from Address of the sender\n    /// @param to Address of the recipient\n    /// @param tokenId tokenId of the NFT\n    function transferFrom(address from, address to, uint tokenId) public override {\n        require(_isApprovedOrOwner(_msgSender(), tokenId), \"ERC721: transfer caller is not owner nor approved\");\n        _payRoyalty(from, tokenId);\n        _transfer(from, to, tokenId);\n    }\n\n    /// @dev Overridden function to add logic to pay the royalty for every transfer\n    /// @param from Address of the sender\n    /// @param to Address of the recipient\n    /// @param tokenId tokenId of the NFT\n    function safeTransferFrom(\n        address from,\n        address to,\n        uint256 tokenId\n    ) public virtual override {\n        _payRoyalty(from, tokenId);\n        safeTransferFrom(from, to, tokenId, \"\");\n    }\n\n\n    /// @dev Overridden function to add logic to pay the royalty for every transfer\n    /// @param from Address of the sender\n    /// @param to Address of the recipient\n    /// @param tokenId tokenId of the NFT\n    /// @param _data Additional data that can be included during the transfer\n    function safeTransferFrom(\n        address from,\n        address to,\n        uint256 tokenId,\n        bytes memory _data\n    ) public virtual override {\n        require(_isApprovedOrOwner(_msgSender(), tokenId), \"ERC721: transfer caller is not owner nor approved\");\n        _payRoyalty(from, tokenId);\n        _safeTransfer(from, to, tokenId, _data);\n    }\n\n\n}\n",
  "sourcePath": "/Users/jescueta/blockchain-project/blockchain-developer-bootcamp-final-project/contracts/NiftyFiftyNFT.sol",
  "compiler": {
    "name": "solc",
    "version": "0.8.0+commit.c7dfd78e.Emscripten.clang"
  },
  "schemaVersion": "3.4.3",
  "updatedAt": "2021-11-29T18:18:04.455Z",
  "networkType": "ethereum",
  "devdoc": {
    "details": "Based on ERC721 implementation from OpenZeppelin - This was created for the Consensys Blockchain Project for learning purposes ",
    "kind": "dev",
    "methods": {
      "approve(address,uint256)": {
        "details": "See {IERC721-approve}."
      },
      "balanceOf(address)": {
        "details": "See {IERC721-balanceOf}."
      },
      "getApproved(uint256)": {
        "details": "See {IERC721-getApproved}."
      },
      "getRoyaltyDetails(uint256)": {
        "details": "Accessor for the royalty details for a given NFT tokenId",
        "params": {
          "tokenId": "tokenId of the NFT"
        },
        "returns": {
          "_0": "royaltyDetails"
        }
      },
      "getTokenIds(address)": {
        "details": "Accessor for the tokenIds available for an artist",
        "params": {
          "artist": "NFT artist address"
        },
        "returns": {
          "_0": "array of tokenIds minted by an artist"
        }
      },
      "isApprovedForAll(address,address)": {
        "details": "See {IERC721-isApprovedForAll}."
      },
      "mint(address,uint256,string)": {
        "details": "Mint an NFT",
        "params": {
          "_amount": "Amount of the royalty token",
          "_royaltyToken": "ERC20 contract address for the preferred royalty token",
          "_tokenURI": "URI that stores the NFT metadata"
        }
      },
      "name()": {
        "details": "See {IERC721Metadata-name}."
      },
      "owner()": {
        "details": "Returns the address of the current owner."
      },
      "ownerOf(uint256)": {
        "details": "See {IERC721-ownerOf}."
      },
      "renounceOwnership()": {
        "details": "Leaves the contract without owner. It will not be possible to call `onlyOwner` functions anymore. Can only be called by the current owner. NOTE: Renouncing ownership will leave the contract without an owner, thereby removing any functionality that is only available to the owner."
      },
      "safeTransferFrom(address,address,uint256)": {
        "details": "Overridden function to add logic to pay the royalty for every transfer",
        "params": {
          "from": "Address of the sender",
          "to": "Address of the recipient",
          "tokenId": "tokenId of the NFT"
        }
      },
      "safeTransferFrom(address,address,uint256,bytes)": {
        "details": "Overridden function to add logic to pay the royalty for every transfer",
        "params": {
          "_data": "Additional data that can be included during the transfer",
          "from": "Address of the sender",
          "to": "Address of the recipient",
          "tokenId": "tokenId of the NFT"
        }
      },
      "setApprovalForAll(address,bool)": {
        "details": "See {IERC721-setApprovalForAll}."
      },
      "supportsInterface(bytes4)": {
        "details": "See {IERC165-supportsInterface}."
      },
      "symbol()": {
        "details": "See {IERC721Metadata-symbol}."
      },
      "tokenURI(uint256)": {
        "details": "See {IERC721Metadata-tokenURI}."
      },
      "transferFrom(address,address,uint256)": {
        "details": "Overridden function to add logic to pay the royalty for every transfer",
        "params": {
          "from": "Address of the sender",
          "to": "Address of the recipient",
          "tokenId": "tokenId of the NFT"
        }
      },
      "transferOwnership(address)": {
        "details": "Transfers ownership of the contract to a new account (`newOwner`). Can only be called by the current owner."
      }
    },
    "stateVariables": {
      "maxRoyaltyCount": {
        "details": "Total number of transfers that royalty will be shared with the contract owner"
      },
      "royaltyDetails": {
        "details": "Royalty details mapping for each tokenId"
      },
      "tokenIdCounter": {
        "details": "Token counter for NFTs minted"
      },
      "tokenIdMap": {
        "details": "Token mapping for each artist of the NFT"
      }
    },
    "title": "NiftyFiftyNFT - NFT Contract for minting Royalty NFTs for transfers (sales/trade) with royalty sharing with the contract owner.",
    "version": 1
  },
  "userdoc": {
    "kind": "user",
    "methods": {
      "constructor": {
        "notice": "Constructor"
      },
      "updateMaxRoyaltyCount(uint256)": {
        "notice": "change the default maximum number of royalty sharing count for subsequent minting"
      }
    },
    "notice": "You may use this contract for basic minting and transfer functionalities.",
    "version": 1
  }
}