{
  "contractName": "NiftyFiftyNFT",
  "abi": [
    {
      "inputs": [],
      "stateMutability": "nonpayable",
      "type": "constructor"
    },
    {
      "anonymous": false,
      "inputs": [
        {
          "indexed": true,
          "internalType": "address",
          "name": "owner",
          "type": "address"
        },
        {
          "indexed": true,
          "internalType": "address",
          "name": "approved",
          "type": "address"
        },
        {
          "indexed": true,
          "internalType": "uint256",
          "name": "tokenId",
          "type": "uint256"
        }
      ],
      "name": "Approval",
      "type": "event"
    },
    {
      "anonymous": false,
      "inputs": [
        {
          "indexed": true,
          "internalType": "address",
          "name": "owner",
          "type": "address"
        },
        {
          "indexed": true,
          "internalType": "address",
          "name": "operator",
          "type": "address"
        },
        {
          "indexed": false,
          "internalType": "bool",
          "name": "approved",
          "type": "bool"
        }
      ],
      "name": "ApprovalForAll",
      "type": "event"
    },
    {
      "anonymous": false,
      "inputs": [
        {
          "indexed": true,
          "internalType": "address",
          "name": "previousOwner",
          "type": "address"
        },
        {
          "indexed": true,
          "internalType": "address",
          "name": "newOwner",
          "type": "address"
        }
      ],
      "name": "OwnershipTransferred",
      "type": "event"
    },
    {
      "anonymous": false,
      "inputs": [
        {
          "indexed": true,
          "internalType": "address",
          "name": "from",
          "type": "address"
        },
        {
          "indexed": true,
          "internalType": "address",
          "name": "to",
          "type": "address"
        },
        {
          "indexed": true,
          "internalType": "uint256",
          "name": "tokenId",
          "type": "uint256"
        }
      ],
      "name": "Transfer",
      "type": "event"
    },
    {
      "inputs": [
        {
          "internalType": "address",
          "name": "to",
          "type": "address"
        },
        {
          "internalType": "uint256",
          "name": "tokenId",
          "type": "uint256"
        }
      ],
      "name": "approve",
      "outputs": [],
      "stateMutability": "nonpayable",
      "type": "function"
    },
    {
      "inputs": [
        {
          "internalType": "address",
          "name": "owner",
          "type": "address"
        }
      ],
      "name": "balanceOf",
      "outputs": [
        {
          "internalType": "uint256",
          "name": "",
          "type": "uint256"
        }
      ],
      "stateMutability": "view",
      "type": "function",
      "constant": true
    },
    {
      "inputs": [
        {
          "internalType": "uint256",
          "name": "tokenId",
          "type": "uint256"
        }
      ],
      "name": "getApproved",
      "outputs": [
        {
          "internalType": "address",
          "name": "",
          "type": "address"
        }
      ],
      "stateMutability": "view",
      "type": "function",
      "constant": true
    },
    {
      "inputs": [
        {
          "internalType": "address",
          "name": "owner",
          "type": "address"
        },
        {
          "internalType": "address",
          "name": "operator",
          "type": "address"
        }
      ],
      "name": "isApprovedForAll",
      "outputs": [
        {
          "internalType": "bool",
          "name": "",
          "type": "bool"
        }
      ],
      "stateMutability": "view",
      "type": "function",
      "constant": true
    },
    {
      "inputs": [],
      "name": "name",
      "outputs": [
        {
          "internalType": "string",
          "name": "",
          "type": "string"
        }
      ],
      "stateMutability": "view",
      "type": "function",
      "constant": true
    },
    {
      "inputs": [],
      "name": "owner",
      "outputs": [
        {
          "internalType": "address",
          "name": "",
          "type": "address"
        }
      ],
      "stateMutability": "view",
      "type": "function",
      "constant": true
    },
    {
      "inputs": [
        {
          "internalType": "uint256",
          "name": "tokenId",
          "type": "uint256"
        }
      ],
      "name": "ownerOf",
      "outputs": [
        {
          "internalType": "address",
          "name": "",
          "type": "address"
        }
      ],
      "stateMutability": "view",
      "type": "function",
      "constant": true
    },
    {
      "inputs": [],
      "name": "renounceOwnership",
      "outputs": [],
      "stateMutability": "nonpayable",
      "type": "function"
    },
    {
      "inputs": [
        {
          "internalType": "address",
          "name": "operator",
          "type": "address"
        },
        {
          "internalType": "bool",
          "name": "approved",
          "type": "bool"
        }
      ],
      "name": "setApprovalForAll",
      "outputs": [],
      "stateMutability": "nonpayable",
      "type": "function"
    },
    {
      "inputs": [
        {
          "internalType": "bytes4",
          "name": "interfaceId",
          "type": "bytes4"
        }
      ],
      "name": "supportsInterface",
      "outputs": [
        {
          "internalType": "bool",
          "name": "",
          "type": "bool"
        }
      ],
      "stateMutability": "view",
      "type": "function",
      "constant": true
    },
    {
      "inputs": [],
      "name": "symbol",
      "outputs": [
        {
          "internalType": "string",
          "name": "",
          "type": "string"
        }
      ],
      "stateMutability": "view",
      "type": "function",
      "constant": true
    },
    {
      "inputs": [
        {
          "internalType": "uint256",
          "name": "tokenId",
          "type": "uint256"
        }
      ],
      "name": "tokenURI",
      "outputs": [
        {
          "internalType": "string",
          "name": "",
          "type": "string"
        }
      ],
      "stateMutability": "view",
      "type": "function",
      "constant": true
    },
    {
      "inputs": [
        {
          "internalType": "address",
          "name": "newOwner",
          "type": "address"
        }
      ],
      "name": "transferOwnership",
      "outputs": [],
      "stateMutability": "nonpayable",
      "type": "function"
    },
    {
      "inputs": [
        {
          "internalType": "uint256",
          "name": "tokenId",
          "type": "uint256"
        }
      ],
      "name": "getRoyaltyDetails",
      "outputs": [
        {
          "internalType": "address",
          "name": "",
          "type": "address"
        },
        {
          "internalType": "uint256",
          "name": "",
          "type": "uint256"
        },
        {
          "internalType": "address",
          "name": "",
          "type": "address"
        },
        {
          "internalType": "uint256",
          "name": "",
          "type": "uint256"
        }
      ],
      "stateMutability": "view",
      "type": "function",
      "constant": true
    },
    {
      "inputs": [
        {
          "internalType": "address",
          "name": "artist",
          "type": "address"
        }
      ],
      "name": "getTokenIds",
      "outputs": [
        {
          "internalType": "uint256[]",
          "name": "",
          "type": "uint256[]"
        }
      ],
      "stateMutability": "view",
      "type": "function",
      "constant": true
    },
    {
      "inputs": [
        {
          "internalType": "address",
          "name": "_royaltyToken",
          "type": "address"
        },
        {
          "internalType": "uint256",
          "name": "_amount",
          "type": "uint256"
        },
        {
          "internalType": "string",
          "name": "_tokenURI",
          "type": "string"
        }
      ],
      "name": "mint",
      "outputs": [],
      "stateMutability": "nonpayable",
      "type": "function"
    },
    {
      "inputs": [
        {
          "internalType": "address",
          "name": "from",
          "type": "address"
        },
        {
          "internalType": "uint256",
          "name": "tokenId",
          "type": "uint256"
        }
      ],
      "name": "_payRoyalty",
      "outputs": [],
      "stateMutability": "nonpayable",
      "type": "function"
    },
    {
      "inputs": [
        {
          "internalType": "address",
          "name": "from",
          "type": "address"
        },
        {
          "internalType": "address",
          "name": "to",
          "type": "address"
        },
        {
          "internalType": "uint256",
          "name": "tokenId",
          "type": "uint256"
        }
      ],
      "name": "transferFrom",
      "outputs": [],
      "stateMutability": "nonpayable",
      "type": "function"
    },
    {
      "inputs": [
        {
          "internalType": "address",
          "name": "from",
          "type": "address"
        },
        {
          "internalType": "address",
          "name": "to",
          "type": "address"
        },
        {
          "internalType": "uint256",
          "name": "tokenId",
          "type": "uint256"
        }
      ],
      "name": "safeTransferFrom",
      "outputs": [],
      "stateMutability": "nonpayable",
      "type": "function"
    },
    {
      "inputs": [
        {
          "internalType": "address",
          "name": "from",
          "type": "address"
        },
        {
          "internalType": "address",
          "name": "to",
          "type": "address"
        },
        {
          "internalType": "uint256",
          "name": "tokenId",
          "type": "uint256"
        },
        {
          "internalType": "bytes",
          "name": "_data",
          "type": "bytes"
        }
      ],
      "name": "safeTransferFrom",
      "outputs": [],
      "stateMutability": "nonpayable",
      "type": "function"
    }
  ],
  "bytecode": "0x60806040523480156200001157600080fd5b506040518060400160405280600d81526020017f4e6966747946696674794e4654000000000000000000000000000000000000008152506040518060400160405280600681526020017f4e49464e46540000000000000000000000000000000000000000000000000000815250816000908051906020019062000096929190620001ae565b508060019080519060200190620000af929190620001ae565b505050620000d2620000c6620000e060201b60201c565b620000e860201b60201c565b600a600b81905550620002c3565b600033905090565b6000600760009054906101000a900473ffffffffffffffffffffffffffffffffffffffff16905081600760006101000a81548173ffffffffffffffffffffffffffffffffffffffff021916908373ffffffffffffffffffffffffffffffffffffffff1602179055508173ffffffffffffffffffffffffffffffffffffffff168173ffffffffffffffffffffffffffffffffffffffff167f8be0079c531659141344cd1fd0a4f28419497f9722a3daafe3b4186f6b6457e060405160405180910390a35050565b828054620001bc906200025e565b90600052602060002090601f016020900481019282620001e057600085556200022c565b82601f10620001fb57805160ff19168380011785556200022c565b828001600101855582156200022c579182015b828111156200022b5782518255916020019190600101906200020e565b5b5090506200023b91906200023f565b5090565b5b808211156200025a57600081600090555060010162000240565b5090565b600060028204905060018216806200027757607f821691505b602082108114156200028e576200028d62000294565b5b50919050565b7f4e487b7100000000000000000000000000000000000000000000000000000000600052602260045260246000fd5b6136de80620002d36000396000f3fe608060405234801561001057600080fd5b506004361061012c5760003560e01c80638da5cb5b116100ad578063cce4024511610071578063cce4024514610344578063d004b03614610360578063d3fc986414610390578063e985e9c5146103ac578063f2fde38b146103dc5761012c565b80638da5cb5b146102a057806395d89b41146102be578063a22cb465146102dc578063b88d4fde146102f8578063c87b56dd146103145761012c565b806323b872dd116100f457806323b872dd146101fe57806342842e0e1461021a5780636352211e1461023657806370a0823114610266578063715018a6146102965761012c565b806301ffc9a71461013157806306fdde0314610161578063081812fc1461017f578063095ea7b3146101af57806312fb2d2d146101cb575b600080fd5b61014b60048036038101906101469190612630565b6103f8565b6040516101589190612fbd565b60405180910390f35b6101696104da565b6040516101769190612fd8565b60405180910390f35b61019960048036038101906101949190612682565b61056c565b6040516101a69190612eb8565b60405180910390f35b6101c960048036038101906101c49190612564565b6105f1565b005b6101e560048036038101906101e09190612682565b610709565b6040516101f59493929190612f56565b60405180910390f35b6102186004803603810190610213919061245e565b6107ba565b005b610234600480360381019061022f919061245e565b610824565b005b610250600480360381019061024b9190612682565b61084e565b60405161025d9190612eb8565b60405180910390f35b610280600480360381019061027b91906123f9565b610900565b60405161028d919061323a565b60405180910390f35b61029e6109b8565b005b6102a8610a40565b6040516102b59190612eb8565b60405180910390f35b6102c6610a6a565b6040516102d39190612fd8565b60405180910390f35b6102f660048036038101906102f19190612528565b610afc565b005b610312600480360381019061030d91906124ad565b610c7d565b005b61032e60048036038101906103299190612682565b610ce9565b60405161033b9190612fd8565b60405180910390f35b61035e60048036038101906103599190612564565b610e3b565b005b61037a600480360381019061037591906123f9565b6110b8565b6040516103879190612f9b565b60405180910390f35b6103aa60048036038101906103a591906125a0565b61114f565b005b6103c660048036038101906103c19190612422565b6112c8565b6040516103d39190612fbd565b60405180910390f35b6103f660048036038101906103f191906123f9565b61135c565b005b60007f80ac58cd000000000000000000000000000000000000000000000000000000007bffffffffffffffffffffffffffffffffffffffffffffffffffffffff1916827bffffffffffffffffffffffffffffffffffffffffffffffffffffffff191614806104c357507f5b5e139f000000000000000000000000000000000000000000000000000000007bffffffffffffffffffffffffffffffffffffffffffffffffffffffff1916827bffffffffffffffffffffffffffffffffffffffffffffffffffffffff1916145b806104d357506104d282611454565b5b9050919050565b6060600080546104e9906134d3565b80601f0160208091040260200160405190810160405280929190818152602001828054610515906134d3565b80156105625780601f1061053757610100808354040283529160200191610562565b820191906000526020600020905b81548152906001019060200180831161054557829003601f168201915b5050505050905090565b6000610577826114be565b6105b6576040517f08c379a00000000000000000000000000000000000000000000000000000000081526004016105ad9061317a565b60405180910390fd5b6004600083815260200190815260200160002060009054906101000a900473ffffffffffffffffffffffffffffffffffffffff169050919050565b60006105fc8261084e565b90508073ffffffffffffffffffffffffffffffffffffffff168373ffffffffffffffffffffffffffffffffffffffff16141561066d576040517f08c379a0000000000000000000000000000000000000000000000000000000008152600401610664906131fa565b60405180910390fd5b8073ffffffffffffffffffffffffffffffffffffffff1661068c61152a565b73ffffffffffffffffffffffffffffffffffffffff1614806106bb57506106ba816106b561152a565b6112c8565b5b6106fa576040517f08c379a00000000000000000000000000000000000000000000000000000000081526004016106f1906130ba565b60405180910390fd5b6107048383611532565b505050565b600080600080600a600086815260200190815260200160002060000160009054906101000a900473ffffffffffffffffffffffffffffffffffffffff16600a600087815260200190815260200160002060010154600a600088815260200190815260200160002060020160009054906101000a900473ffffffffffffffffffffffffffffffffffffffff16600a60008981526020019081526020016000206003015493509350935093509193509193565b6107cb6107c561152a565b826115eb565b61080a576040517f08c379a00000000000000000000000000000000000000000000000000000000081526004016108019061321a565b60405180910390fd5b6108148382610e3b565b61081f8383836116c9565b505050565b61082e8382610e3b565b61084983838360405180602001604052806000815250610c7d565b505050565b6000806002600084815260200190815260200160002060009054906101000a900473ffffffffffffffffffffffffffffffffffffffff169050600073ffffffffffffffffffffffffffffffffffffffff168173ffffffffffffffffffffffffffffffffffffffff1614156108f7576040517f08c379a00000000000000000000000000000000000000000000000000000000081526004016108ee906130fa565b60405180910390fd5b80915050919050565b60008073ffffffffffffffffffffffffffffffffffffffff168273ffffffffffffffffffffffffffffffffffffffff161415610971576040517f08c379a0000000000000000000000000000000000000000000000000000000008152600401610968906130da565b60405180910390fd5b600360008373ffffffffffffffffffffffffffffffffffffffff1673ffffffffffffffffffffffffffffffffffffffff168152602001908152602001600020549050919050565b6109c061152a565b73ffffffffffffffffffffffffffffffffffffffff166109de610a40565b73ffffffffffffffffffffffffffffffffffffffff1614610a34576040517f08c379a0000000000000000000000000000000000000000000000000000000008152600401610a2b9061319a565b60405180910390fd5b610a3e6000611925565b565b6000600760009054906101000a900473ffffffffffffffffffffffffffffffffffffffff16905090565b606060018054610a79906134d3565b80601f0160208091040260200160405190810160405280929190818152602001828054610aa5906134d3565b8015610af25780601f10610ac757610100808354040283529160200191610af2565b820191906000526020600020905b815481529060010190602001808311610ad557829003601f168201915b5050505050905090565b610b0461152a565b73ffffffffffffffffffffffffffffffffffffffff168273ffffffffffffffffffffffffffffffffffffffff161415610b72576040517f08c379a0000000000000000000000000000000000000000000000000000000008152600401610b699061307a565b60405180910390fd5b8060056000610b7f61152a565b73ffffffffffffffffffffffffffffffffffffffff1673ffffffffffffffffffffffffffffffffffffffff16815260200190815260200160002060008473ffffffffffffffffffffffffffffffffffffffff1673ffffffffffffffffffffffffffffffffffffffff16815260200190815260200160002060006101000a81548160ff0219169083151502179055508173ffffffffffffffffffffffffffffffffffffffff16610c2c61152a565b73ffffffffffffffffffffffffffffffffffffffff167f17307eab39ab6107e8899845ad3d59bd9653f200f220920489ca2b5937696c3183604051610c719190612fbd565b60405180910390a35050565b610c8e610c8861152a565b836115eb565b610ccd576040517f08c379a0000000000000000000000000000000000000000000000000000000008152600401610cc49061321a565b60405180910390fd5b610cd78483610e3b565b610ce3848484846119eb565b50505050565b6060610cf4826114be565b610d33576040517f08c379a0000000000000000000000000000000000000000000000000000000008152600401610d2a9061315a565b60405180910390fd5b6000600660008481526020019081526020016000208054610d53906134d3565b80601f0160208091040260200160405190810160405280929190818152602001828054610d7f906134d3565b8015610dcc5780601f10610da157610100808354040283529160200191610dcc565b820191906000526020600020905b815481529060010190602001808311610daf57829003601f168201915b505050505090506000610ddd611a47565b9050600081511415610df3578192505050610e36565b600082511115610e28578082604051602001610e10929190612e94565b60405160208183030381529060405292505050610e36565b610e3184611a5e565b925050505b919050565b6000610e4682611b05565b9050600081600001519050600b54826060015110610f3357816040015173ffffffffffffffffffffffffffffffffffffffff168473ffffffffffffffffffffffffffffffffffffffff1614610f2e578073ffffffffffffffffffffffffffffffffffffffff166323b872dd85846040015185602001516040518463ffffffff1660e01b8152600401610eda93929190612ed3565b602060405180830381600087803b158015610ef457600080fd5b505af1158015610f08573d6000803e3d6000fd5b505050506040513d601f19601f82011682018060405250810190610f2c9190612607565b505b6110b2565b600060028360200151610f4691906133b8565b90508173ffffffffffffffffffffffffffffffffffffffff166323b872dd86610f6d610a40565b846040518463ffffffff1660e01b8152600401610f8c93929190612ed3565b602060405180830381600087803b158015610fa657600080fd5b505af1158015610fba573d6000803e3d6000fd5b505050506040513d601f19601f82011682018060405250810190610fde9190612607565b508173ffffffffffffffffffffffffffffffffffffffff166323b872dd868560400151846040518463ffffffff1660e01b815260040161102093929190612ed3565b602060405180830381600087803b15801561103a57600080fd5b505af115801561104e573d6000803e3d6000fd5b505050506040513d601f19601f820116820180604052508101906110729190612607565b506001600a6000868152602001908152602001600020600301546110969190613362565b600a600086815260200190815260200160002060030181905550505b50505050565b6060600960008373ffffffffffffffffffffffffffffffffffffffff1673ffffffffffffffffffffffffffffffffffffffff16815260200190815260200160002080548060200260200160405190810160405280929190818152602001828054801561114357602002820191906000526020600020905b81548152602001906001019080831161112f575b50505050509050919050565b6111596008611bf2565b60006111656008611c08565b905083600a600083815260200190815260200160002060000160006101000a81548173ffffffffffffffffffffffffffffffffffffffff021916908373ffffffffffffffffffffffffffffffffffffffff16021790555082600a60008381526020019081526020016000206001018190555033600a600083815260200190815260200160002060020160006101000a81548173ffffffffffffffffffffffffffffffffffffffff021916908373ffffffffffffffffffffffffffffffffffffffff1602179055506000600a6000838152602001908152602001600020600301819055506112523382611c16565b600960003373ffffffffffffffffffffffffffffffffffffffff1673ffffffffffffffffffffffffffffffffffffffff1681526020019081526020016000208190806001815401808255809150506001900390600052602060002001600090919091909150556112c28183611de4565b50505050565b6000600560008473ffffffffffffffffffffffffffffffffffffffff1673ffffffffffffffffffffffffffffffffffffffff16815260200190815260200160002060008373ffffffffffffffffffffffffffffffffffffffff1673ffffffffffffffffffffffffffffffffffffffff16815260200190815260200160002060009054906101000a900460ff16905092915050565b61136461152a565b73ffffffffffffffffffffffffffffffffffffffff16611382610a40565b73ffffffffffffffffffffffffffffffffffffffff16146113d8576040517f08c379a00000000000000000000000000000000000000000000000000000000081526004016113cf9061319a565b60405180910390fd5b600073ffffffffffffffffffffffffffffffffffffffff168173ffffffffffffffffffffffffffffffffffffffff161415611448576040517f08c379a000000000000000000000000000000000000000000000000000000000815260040161143f9061301a565b60405180910390fd5b61145181611925565b50565b60007f01ffc9a7000000000000000000000000000000000000000000000000000000007bffffffffffffffffffffffffffffffffffffffffffffffffffffffff1916827bffffffffffffffffffffffffffffffffffffffffffffffffffffffff1916149050919050565b60008073ffffffffffffffffffffffffffffffffffffffff166002600084815260200190815260200160002060009054906101000a900473ffffffffffffffffffffffffffffffffffffffff1673ffffffffffffffffffffffffffffffffffffffff1614159050919050565b600033905090565b816004600083815260200190815260200160002060006101000a81548173ffffffffffffffffffffffffffffffffffffffff021916908373ffffffffffffffffffffffffffffffffffffffff160217905550808273ffffffffffffffffffffffffffffffffffffffff166115a58361084e565b73ffffffffffffffffffffffffffffffffffffffff167f8c5be1e5ebec7d5bd14f71427d1e84f3dd0314c0f7b2291e5b200ac8c7c3b92560405160405180910390a45050565b60006115f6826114be565b611635576040517f08c379a000000000000000000000000000000000000000000000000000000000815260040161162c9061309a565b60405180910390fd5b60006116408361084e565b90508073ffffffffffffffffffffffffffffffffffffffff168473ffffffffffffffffffffffffffffffffffffffff1614806116af57508373ffffffffffffffffffffffffffffffffffffffff166116978461056c565b73ffffffffffffffffffffffffffffffffffffffff16145b806116c057506116bf81856112c8565b5b91505092915050565b8273ffffffffffffffffffffffffffffffffffffffff166116e98261084e565b73ffffffffffffffffffffffffffffffffffffffff161461173f576040517f08c379a0000000000000000000000000000000000000000000000000000000008152600401611736906131ba565b60405180910390fd5b600073ffffffffffffffffffffffffffffffffffffffff168273ffffffffffffffffffffffffffffffffffffffff1614156117af576040517f08c379a00000000000000000000000000000000000000000000000000000000081526004016117a69061305a565b60405180910390fd5b6117ba838383611e58565b6117c5600082611532565b6001600360008573ffffffffffffffffffffffffffffffffffffffff1673ffffffffffffffffffffffffffffffffffffffff168152602001908152602001600020600082825461181591906133e9565b925050819055506001600360008473ffffffffffffffffffffffffffffffffffffffff1673ffffffffffffffffffffffffffffffffffffffff168152602001908152602001600020600082825461186c9190613362565b92505081905550816002600083815260200190815260200160002060006101000a81548173ffffffffffffffffffffffffffffffffffffffff021916908373ffffffffffffffffffffffffffffffffffffffff160217905550808273ffffffffffffffffffffffffffffffffffffffff168473ffffffffffffffffffffffffffffffffffffffff167fddf252ad1be2c89b69c2b068fc378daa952ba7f163c4a11628f55a4df523b3ef60405160405180910390a4505050565b6000600760009054906101000a900473ffffffffffffffffffffffffffffffffffffffff16905081600760006101000a81548173ffffffffffffffffffffffffffffffffffffffff021916908373ffffffffffffffffffffffffffffffffffffffff1602179055508173ffffffffffffffffffffffffffffffffffffffff168173ffffffffffffffffffffffffffffffffffffffff167f8be0079c531659141344cd1fd0a4f28419497f9722a3daafe3b4186f6b6457e060405160405180910390a35050565b6119f68484846116c9565b611a0284848484611e5d565b611a41576040517f08c379a0000000000000000000000000000000000000000000000000000000008152600401611a3890612ffa565b60405180910390fd5b50505050565b606060405180602001604052806000815250905090565b6060611a69826114be565b611aa8576040517f08c379a0000000000000000000000000000000000000000000000000000000008152600401611a9f906131da565b60405180910390fd5b6000611ab2611a47565b90506000815111611ad25760405180602001604052806000815250611afd565b80611adc84611ff4565b604051602001611aed929190612e94565b6040516020818303038152906040525b915050919050565b611b0d6121b4565b600a60008381526020019081526020016000206040518060800160405290816000820160009054906101000a900473ffffffffffffffffffffffffffffffffffffffff1673ffffffffffffffffffffffffffffffffffffffff1673ffffffffffffffffffffffffffffffffffffffff168152602001600182015481526020016002820160009054906101000a900473ffffffffffffffffffffffffffffffffffffffff1673ffffffffffffffffffffffffffffffffffffffff1673ffffffffffffffffffffffffffffffffffffffff1681526020016003820154815250509050919050565b6001816000016000828254019250508190555050565b600081600001549050919050565b600073ffffffffffffffffffffffffffffffffffffffff168273ffffffffffffffffffffffffffffffffffffffff161415611c86576040517f08c379a0000000000000000000000000000000000000000000000000000000008152600401611c7d9061313a565b60405180910390fd5b611c8f816114be565b15611ccf576040517f08c379a0000000000000000000000000000000000000000000000000000000008152600401611cc69061303a565b60405180910390fd5b611cdb60008383611e58565b6001600360008473ffffffffffffffffffffffffffffffffffffffff1673ffffffffffffffffffffffffffffffffffffffff1681526020019081526020016000206000828254611d2b9190613362565b92505081905550816002600083815260200190815260200160002060006101000a81548173ffffffffffffffffffffffffffffffffffffffff021916908373ffffffffffffffffffffffffffffffffffffffff160217905550808273ffffffffffffffffffffffffffffffffffffffff16600073ffffffffffffffffffffffffffffffffffffffff167fddf252ad1be2c89b69c2b068fc378daa952ba7f163c4a11628f55a4df523b3ef60405160405180910390a45050565b611ded826114be565b611e2c576040517f08c379a0000000000000000000000000000000000000000000000000000000008152600401611e239061311a565b60405180910390fd5b80600660008481526020019081526020016000209080519060200190611e53929190612208565b505050565b505050565b6000611e7e8473ffffffffffffffffffffffffffffffffffffffff166121a1565b15611fe7578373ffffffffffffffffffffffffffffffffffffffff1663150b7a02611ea761152a565b8786866040518563ffffffff1660e01b8152600401611ec99493929190612f0a565b602060405180830381600087803b158015611ee357600080fd5b505af1925050508015611f1457506040513d601f19601f82011682018060405250810190611f119190612659565b60015b611f97573d8060008114611f44576040519150601f19603f3d011682016040523d82523d6000602084013e611f49565b606091505b50600081511415611f8f576040517f08c379a0000000000000000000000000000000000000000000000000000000008152600401611f8690612ffa565b60405180910390fd5b805181602001fd5b63150b7a0260e01b7bffffffffffffffffffffffffffffffffffffffffffffffffffffffff1916817bffffffffffffffffffffffffffffffffffffffffffffffffffffffff191614915050611fec565b600190505b949350505050565b6060600082141561203c576040518060400160405280600181526020017f3000000000000000000000000000000000000000000000000000000000000000815250905061219c565b600082905060005b6000821461206e57808061205790613505565b915050600a8261206791906133b8565b9150612044565b60008167ffffffffffffffff8111156120b0577f4e487b7100000000000000000000000000000000000000000000000000000000600052604160045260246000fd5b6040519080825280601f01601f1916602001820160405280156120e25781602001600182028036833780820191505090505b5090505b60008514612195576001826120fb91906133e9565b9150600a8561210a919061354e565b60306121169190613362565b60f81b818381518110612152577f4e487b7100000000000000000000000000000000000000000000000000000000600052603260045260246000fd5b60200101907effffffffffffffffffffffffffffffffffffffffffffffffffffffffffffff1916908160001a905350600a8561218e91906133b8565b94506120e6565b8093505050505b919050565b600080823b905060008111915050919050565b6040518060800160405280600073ffffffffffffffffffffffffffffffffffffffff16815260200160008152602001600073ffffffffffffffffffffffffffffffffffffffff168152602001600081525090565b828054612214906134d3565b90600052602060002090601f016020900481019282612236576000855561227d565b82601f1061224f57805160ff191683800117855561227d565b8280016001018555821561227d579182015b8281111561227c578251825591602001919060010190612261565b5b50905061228a919061228e565b5090565b5b808211156122a757600081600090555060010161228f565b5090565b60006122be6122b984613286565b613255565b9050828152602081018484840111156122d657600080fd5b6122e1848285613491565b509392505050565b60006122fc6122f7846132b6565b613255565b90508281526020810184848401111561231457600080fd5b61231f848285613491565b509392505050565b6000813590506123368161364c565b92915050565b60008135905061234b81613663565b92915050565b60008151905061236081613663565b92915050565b6000813590506123758161367a565b92915050565b60008151905061238a8161367a565b92915050565b600082601f8301126123a157600080fd5b81356123b18482602086016122ab565b91505092915050565b600082601f8301126123cb57600080fd5b81356123db8482602086016122e9565b91505092915050565b6000813590506123f381613691565b92915050565b60006020828403121561240b57600080fd5b600061241984828501612327565b91505092915050565b6000806040838503121561243557600080fd5b600061244385828601612327565b925050602061245485828601612327565b9150509250929050565b60008060006060848603121561247357600080fd5b600061248186828701612327565b935050602061249286828701612327565b92505060406124a3868287016123e4565b9150509250925092565b600080600080608085870312156124c357600080fd5b60006124d187828801612327565b94505060206124e287828801612327565b93505060406124f3878288016123e4565b925050606085013567ffffffffffffffff81111561251057600080fd5b61251c87828801612390565b91505092959194509250565b6000806040838503121561253b57600080fd5b600061254985828601612327565b925050602061255a8582860161233c565b9150509250929050565b6000806040838503121561257757600080fd5b600061258585828601612327565b9250506020612596858286016123e4565b9150509250929050565b6000806000606084860312156125b557600080fd5b60006125c386828701612327565b93505060206125d4868287016123e4565b925050604084013567ffffffffffffffff8111156125f157600080fd5b6125fd868287016123ba565b9150509250925092565b60006020828403121561261957600080fd5b600061262784828501612351565b91505092915050565b60006020828403121561264257600080fd5b600061265084828501612366565b91505092915050565b60006020828403121561266b57600080fd5b60006126798482850161237b565b91505092915050565b60006020828403121561269457600080fd5b60006126a2848285016123e4565b91505092915050565b60006126b78383612e76565b60208301905092915050565b6126cc8161341d565b82525050565b60006126dd826132f6565b6126e78185613324565b93506126f2836132e6565b8060005b8381101561272357815161270a88826126ab565b975061271583613317565b9250506001810190506126f6565b5085935050505092915050565b6127398161342f565b82525050565b600061274a82613301565b6127548185613335565b93506127648185602086016134a0565b61276d8161363b565b840191505092915050565b60006127838261330c565b61278d8185613346565b935061279d8185602086016134a0565b6127a68161363b565b840191505092915050565b60006127bc8261330c565b6127c68185613357565b93506127d68185602086016134a0565b80840191505092915050565b60006127ef603283613346565b91507f4552433732313a207472616e7366657220746f206e6f6e20455243373231526560008301527f63656976657220696d706c656d656e74657200000000000000000000000000006020830152604082019050919050565b6000612855602683613346565b91507f4f776e61626c653a206e6577206f776e657220697320746865207a65726f206160008301527f64647265737300000000000000000000000000000000000000000000000000006020830152604082019050919050565b60006128bb601c83613346565b91507f4552433732313a20746f6b656e20616c7265616479206d696e746564000000006000830152602082019050919050565b60006128fb602483613346565b91507f4552433732313a207472616e7366657220746f20746865207a65726f2061646460008301527f72657373000000000000000000000000000000000000000000000000000000006020830152604082019050919050565b6000612961601983613346565b91507f4552433732313a20617070726f766520746f2063616c6c6572000000000000006000830152602082019050919050565b60006129a1602c83613346565b91507f4552433732313a206f70657261746f7220717565727920666f72206e6f6e657860008301527f697374656e7420746f6b656e00000000000000000000000000000000000000006020830152604082019050919050565b6000612a07603883613346565b91507f4552433732313a20617070726f76652063616c6c6572206973206e6f74206f7760008301527f6e6572206e6f7220617070726f76656420666f7220616c6c00000000000000006020830152604082019050919050565b6000612a6d602a83613346565b91507f4552433732313a2062616c616e636520717565727920666f7220746865207a6560008301527f726f2061646472657373000000000000000000000000000000000000000000006020830152604082019050919050565b6000612ad3602983613346565b91507f4552433732313a206f776e657220717565727920666f72206e6f6e657869737460008301527f656e7420746f6b656e00000000000000000000000000000000000000000000006020830152604082019050919050565b6000612b39602e83613346565b91507f45524337323155524953746f726167653a2055524920736574206f66206e6f6e60008301527f6578697374656e7420746f6b656e0000000000000000000000000000000000006020830152604082019050919050565b6000612b9f602083613346565b91507f4552433732313a206d696e7420746f20746865207a65726f20616464726573736000830152602082019050919050565b6000612bdf603183613346565b91507f45524337323155524953746f726167653a2055524920717565727920666f722060008301527f6e6f6e6578697374656e7420746f6b656e0000000000000000000000000000006020830152604082019050919050565b6000612c45602c83613346565b91507f4552433732313a20617070726f76656420717565727920666f72206e6f6e657860008301527f697374656e7420746f6b656e00000000000000000000000000000000000000006020830152604082019050919050565b6000612cab602083613346565b91507f4f776e61626c653a2063616c6c6572206973206e6f7420746865206f776e65726000830152602082019050919050565b6000612ceb602983613346565b91507f4552433732313a207472616e73666572206f6620746f6b656e2074686174206960008301527f73206e6f74206f776e00000000000000000000000000000000000000000000006020830152604082019050919050565b6000612d51602f83613346565b91507f4552433732314d657461646174613a2055524920717565727920666f72206e6f60008301527f6e6578697374656e7420746f6b656e00000000000000000000000000000000006020830152604082019050919050565b6000612db7602183613346565b91507f4552433732313a20617070726f76616c20746f2063757272656e74206f776e6560008301527f72000000000000000000000000000000000000000000000000000000000000006020830152604082019050919050565b6000612e1d603183613346565b91507f4552433732313a207472616e736665722063616c6c6572206973206e6f74206f60008301527f776e6572206e6f7220617070726f7665640000000000000000000000000000006020830152604082019050919050565b612e7f81613487565b82525050565b612e8e81613487565b82525050565b6000612ea082856127b1565b9150612eac82846127b1565b91508190509392505050565b6000602082019050612ecd60008301846126c3565b92915050565b6000606082019050612ee860008301866126c3565b612ef560208301856126c3565b612f026040830184612e85565b949350505050565b6000608082019050612f1f60008301876126c3565b612f2c60208301866126c3565b612f396040830185612e85565b8181036060830152612f4b818461273f565b905095945050505050565b6000608082019050612f6b60008301876126c3565b612f786020830186612e85565b612f8560408301856126c3565b612f926060830184612e85565b95945050505050565b60006020820190508181036000830152612fb581846126d2565b905092915050565b6000602082019050612fd26000830184612730565b92915050565b60006020820190508181036000830152612ff28184612778565b905092915050565b60006020820190508181036000830152613013816127e2565b9050919050565b6000602082019050818103600083015261303381612848565b9050919050565b60006020820190508181036000830152613053816128ae565b9050919050565b60006020820190508181036000830152613073816128ee565b9050919050565b6000602082019050818103600083015261309381612954565b9050919050565b600060208201905081810360008301526130b381612994565b9050919050565b600060208201905081810360008301526130d3816129fa565b9050919050565b600060208201905081810360008301526130f381612a60565b9050919050565b6000602082019050818103600083015261311381612ac6565b9050919050565b6000602082019050818103600083015261313381612b2c565b9050919050565b6000602082019050818103600083015261315381612b92565b9050919050565b6000602082019050818103600083015261317381612bd2565b9050919050565b6000602082019050818103600083015261319381612c38565b9050919050565b600060208201905081810360008301526131b381612c9e565b9050919050565b600060208201905081810360008301526131d381612cde565b9050919050565b600060208201905081810360008301526131f381612d44565b9050919050565b6000602082019050818103600083015261321381612daa565b9050919050565b6000602082019050818103600083015261323381612e10565b9050919050565b600060208201905061324f6000830184612e85565b92915050565b6000604051905081810181811067ffffffffffffffff8211171561327c5761327b61360c565b5b8060405250919050565b600067ffffffffffffffff8211156132a1576132a061360c565b5b601f19601f8301169050602081019050919050565b600067ffffffffffffffff8211156132d1576132d061360c565b5b601f19601f8301169050602081019050919050565b6000819050602082019050919050565b600081519050919050565b600081519050919050565b600081519050919050565b6000602082019050919050565b600082825260208201905092915050565b600082825260208201905092915050565b600082825260208201905092915050565b600081905092915050565b600061336d82613487565b915061337883613487565b9250827fffffffffffffffffffffffffffffffffffffffffffffffffffffffffffffffff038211156133ad576133ac61357f565b5b828201905092915050565b60006133c382613487565b91506133ce83613487565b9250826133de576133dd6135ae565b5b828204905092915050565b60006133f482613487565b91506133ff83613487565b9250828210156134125761341161357f565b5b828203905092915050565b600061342882613467565b9050919050565b60008115159050919050565b60007fffffffff0000000000000000000000000000000000000000000000000000000082169050919050565b600073ffffffffffffffffffffffffffffffffffffffff82169050919050565b6000819050919050565b82818337600083830152505050565b60005b838110156134be5780820151818401526020810190506134a3565b838111156134cd576000848401525b50505050565b600060028204905060018216806134eb57607f821691505b602082108114156134ff576134fe6135dd565b5b50919050565b600061351082613487565b91507fffffffffffffffffffffffffffffffffffffffffffffffffffffffffffffffff8214156135435761354261357f565b5b600182019050919050565b600061355982613487565b915061356483613487565b925082613574576135736135ae565b5b828206905092915050565b7f4e487b7100000000000000000000000000000000000000000000000000000000600052601160045260246000fd5b7f4e487b7100000000000000000000000000000000000000000000000000000000600052601260045260246000fd5b7f4e487b7100000000000000000000000000000000000000000000000000000000600052602260045260246000fd5b7f4e487b7100000000000000000000000000000000000000000000000000000000600052604160045260246000fd5b6000601f19601f8301169050919050565b6136558161341d565b811461366057600080fd5b50565b61366c8161342f565b811461367757600080fd5b50565b6136838161343b565b811461368e57600080fd5b50565b61369a81613487565b81146136a557600080fd5b5056fea264697066735822122021c7da7cc6f6ebe0a28750e9e75a77cf075ad1e12014aced6364a88854f6d1bd64736f6c63430008000033",
  "immutableReferences": {},
  "source": "// SPDX-License-Identifier: MIT\nimport \"@openzeppelin/contracts/token/ERC721/ERC721.sol\";\nimport \"@openzeppelin/contracts/token/ERC721/extensions/ERC721URIStorage.sol\";\nimport \"@openzeppelin/contracts/token/ERC20/IERC20.sol\";\nimport \"@openzeppelin/contracts/access/Ownable.sol\";\nimport \"@openzeppelin/contracts/utils/Counters.sol\";\n\ncontract NiftyFiftyNFT is ERC721URIStorage, Ownable {\n  using Counters for Counters.Counter;\n\n  Counters.Counter tokenIdCounter;\n\n  struct RoyaltyDetail {\n    address royaltyToken;\n    uint amount;\n    address artist;\n    uint counter;\n  }\n\n  mapping(address => uint[]) tokenIdMap;\n\n  mapping(uint => RoyaltyDetail) royaltyDetails;\n\n  uint maxRoyaltyCount;\n\n  constructor() ERC721('NiftyFiftyNFT', 'NIFNFT') {\n    maxRoyaltyCount = 10; // this can be changed later on\n  }\n  \n  function getRoyaltyDetails(uint tokenId) public view returns (address, uint, address, uint) {\n    return (royaltyDetails[tokenId].royaltyToken, royaltyDetails[tokenId].amount, royaltyDetails[tokenId].artist, royaltyDetails[tokenId].counter);\n  }\n\n  function _getRoyaltyDetails(uint tokenId) internal view returns(RoyaltyDetail memory) {\n    return royaltyDetails[tokenId];\n  }\n\n  function getTokenIds(address artist) public view returns (uint [] memory) {\n    return tokenIdMap[artist]; \n  }\n\n  function mint(address _royaltyToken, uint _amount, string memory _tokenURI) public {\n    tokenIdCounter.increment();\n    uint tokenId = tokenIdCounter.current();\n    royaltyDetails[tokenId].royaltyToken = _royaltyToken;\n    royaltyDetails[tokenId].amount = _amount;\n    royaltyDetails[tokenId].artist = msg.sender;\n    royaltyDetails[tokenId].counter = 0;\n    _mint(msg.sender, tokenId);\n    tokenIdMap[msg.sender].push(tokenId);\n    _setTokenURI(tokenId, _tokenURI);\n  }\n\n  function _payRoyalty (address from, uint tokenId) public {\n    RoyaltyDetail memory _rdetails = _getRoyaltyDetails(tokenId);\n    IERC20 token = IERC20(_rdetails.royaltyToken);\n\n    if (_rdetails.counter >= maxRoyaltyCount) {\n      if (from != _rdetails.artist) {\n        token.transferFrom(from, _rdetails.artist, _rdetails.amount);\n      }\n      \n    } else {\n      uint split = _rdetails.amount / 2;\n      token.transferFrom(from, owner(), split);\n      \n      token.transferFrom(from, _rdetails.artist, split);\n      \n      royaltyDetails[tokenId].counter = royaltyDetails[tokenId].counter + 1;\n    }\n  }\n\n  function transferFrom(address from, address to, uint tokenId) public override {\n    require(_isApprovedOrOwner(_msgSender(), tokenId), \"ERC721: transfer caller is not owner nor approved\");\n    _payRoyalty(from, tokenId);\n    _transfer(from, to, tokenId);\n  }  \n\n  function safeTransferFrom(\n        address from,\n        address to,\n        uint256 tokenId\n    ) public virtual override {\n        _payRoyalty(from, tokenId);\n        safeTransferFrom(from, to, tokenId, \"\");\n    }\n\n  \n  function safeTransferFrom(\n        address from,\n        address to,\n        uint256 tokenId,\n        bytes memory _data\n    ) public virtual override {\n        require(_isApprovedOrOwner(_msgSender(), tokenId), \"ERC721: transfer caller is not owner nor approved\");\n        _payRoyalty(from, tokenId);\n        _safeTransfer(from, to, tokenId, _data);\n    }\n\n\n}\n",
  "sourcePath": "/Users/jescueta/blockchain-project/nft-minter/contracts/NiftyFiftyNFT.sol",
  "compiler": {
    "name": "solc",
    "version": "0.8.0+commit.c7dfd78e.Emscripten.clang"
  },
  "schemaVersion": "3.4.3",
  "updatedAt": "2021-11-25T19:05:20.977Z",
  "networkType": "ethereum",
  "devdoc": {
    "kind": "dev",
    "methods": {
      "approve(address,uint256)": {
        "details": "See {IERC721-approve}."
      },
      "balanceOf(address)": {
        "details": "See {IERC721-balanceOf}."
      },
      "getApproved(uint256)": {
        "details": "See {IERC721-getApproved}."
      },
      "isApprovedForAll(address,address)": {
        "details": "See {IERC721-isApprovedForAll}."
      },
      "name()": {
        "details": "See {IERC721Metadata-name}."
      },
      "owner()": {
        "details": "Returns the address of the current owner."
      },
      "ownerOf(uint256)": {
        "details": "See {IERC721-ownerOf}."
      },
      "renounceOwnership()": {
        "details": "Leaves the contract without owner. It will not be possible to call `onlyOwner` functions anymore. Can only be called by the current owner. NOTE: Renouncing ownership will leave the contract without an owner, thereby removing any functionality that is only available to the owner."
      },
      "safeTransferFrom(address,address,uint256)": {
        "details": "See {IERC721-safeTransferFrom}."
      },
      "safeTransferFrom(address,address,uint256,bytes)": {
        "details": "See {IERC721-safeTransferFrom}."
      },
      "setApprovalForAll(address,bool)": {
        "details": "See {IERC721-setApprovalForAll}."
      },
      "supportsInterface(bytes4)": {
        "details": "See {IERC165-supportsInterface}."
      },
      "symbol()": {
        "details": "See {IERC721Metadata-symbol}."
      },
      "tokenURI(uint256)": {
        "details": "See {IERC721Metadata-tokenURI}."
      },
      "transferFrom(address,address,uint256)": {
        "details": "See {IERC721-transferFrom}."
      },
      "transferOwnership(address)": {
        "details": "Transfers ownership of the contract to a new account (`newOwner`). Can only be called by the current owner."
      }
    },
    "version": 1
  },
  "userdoc": {
    "kind": "user",
    "methods": {},
    "version": 1
  }
}